:020000040800F2
:10000000F808002089010008CD260008CD2400084A
:10001000C92600088F0200080D2C0008000000000F
:10002000000000000000000000000000FD260008A5
:10003000DF04000800000000D1260008FF260008A9
:10004000A3010008A3010008A3010008A301000800
:10005000A3010008A3010008A3010008A3010008F0
:10006000A3010008E1040008EB040008A301000854
:10007000A3010008A3010008A3010008A3010008D0
:10008000A3010008A3010008A3010008ED2B00084C
:10009000FD2B000895020008A3010008A301000839
:1000A000A3010008A3010008A3010008A3010008A0
:1000B000A3010008A3010008A3010008A301000890
:1000C000A3010008A3010008A3010008A301000880
:1000D000A3010008DD2B0008A3010008A30100080C
:1000E000A3010008A3010008A301000800F002F822
:1000F00000F03AF80AA090E8000C82448344AAF188
:100100000107DA4501D100F02FF8AFF2090EBAE885
:100110000F0013F0010F18BFFB1A43F0010318473B
:100120000837000028370000103A24BF78C878C18B
:10013000FAD8520724BF30C830C144BF04680C60ED
:10014000704700000023002400250026103A28BF35
:1001500078C1FBD8520728BF30C148BF0B60704739
:100160001FB51FBD10B510BD00F058F81146FFF7C0
:10017000F7FF02F08FFE00F076F803B4FFF7F2FF0E
:1001800003BC00F07DF8000009488047094800479B
:10019000FEE7FEE7FEE7FEE7FEE7FEE7FEE7FEE737
:1001A000FEE7FEE704480549054A064B7047000094
:1001B0006D270008ED000008F8020020F808002074
:1001C000F8040020F80400204FF0000200B51346A8
:1001D00094469646203922BFA0E80C50A0E80C5067
:1001E000B1F12001BFF4F7AF090728BFA0E80C5018
:1001F00048BF0CC05DF804EB890028BF40F8042B11
:1002000008BF704748BF20F8022B11F0804F18BF7D
:1002100000F8012B7047704770477047754600F033
:100220002BF8AE4605006946534620F00700854688
:1002300018B020B5FFF7B6FFBDE820404FF000062C
:100240004FF000074FF000084FF0000B21F00701BE
:10025000AC46ACE8C009ACE8C009ACE8C009ACE801
:10026000C0098D46704710B50446AFF300802046A4
:10027000BDE81040FFF781BF00487047980200209A
:1002800001491820ABBEFEE726000200704700BF00
:10029000FEE7000010B5024800F012FC10BD00009F
:1002A0004000002070B505460E46144604F11C03BC
:1002B00022463146284600F039FB012084F824000C
:1002C00070BD2DE9F04707460C4615461E46DDE990
:1002D000088901202062656126614FEA481020608C
:1002E000002060604FEA4910A0600020E060A0613B
:1002F0000120E061002060622146384600F090FA5B
:10030000BDE8F0872DE9FF5F83460C4691469A468B
:100310008DF808A0CDF8099094F8620048B3B4F8BD
:10032000600030B3B4F8600003F03BF807463A468B
:100330000B460020104902F0C5FE05460E4601F0AE
:1003400087F80E490968471A384603F02AF82A4602
:100350003346CDE9000103F071F90AD800F012F834
:10036000074908600B4602AA04F13001584600F024
:10037000B2F9BDE8FF9F000000408F403C00002024
:10038000380000200B48006800F0806008B10120B0
:1003900070470848006800F0006008B10220F7E7E5
:1003A0000448006800F0805008B10420F0E7022003
:1003B000EEE7000008640040F8B506460C46154616
:1003C00020682968884227D194F8240020B395F842
:1003D000620008BB207F8DF80000607F8DF801006F
:1003E000607F217F40EA0120A5F8600000BFFFF791
:1003F000C9FF0228FBD0FFF7C5FF084908600B467C
:100400006A4605F11801304600F065F9012085F8CB
:100410006200002084F82400F8BD000038000020AD
:10042000014691F86200704710B504460D49A06C72
:10043000896C884204D102F0B9FC00200A490860A6
:100440000A49A06C896C88420AD10949094800F020
:10045000E5F80949094800F0E1F800200249086080
:1004600010BD0000D80100203C02002074010020D3
:100470006800002040010020B0000020540100204E
:1004800070B505460C462068A96C884205D12846FF
:10049000FFF7CAFF002084F8240070BD70B5049CEB
:1004A00002250561002545608560C5600160057510
:1004B000022686620026C6610662466282612C259B
:1004C0002E540826066400264663C663036344254B
:1004D0002E548665C66406654665846470BD7047A3
:1004E00010B5082000F016FE10BD10B5102000F069
:1004F00011FE10BD01460848007858B9888800B23E
:1005000088818878C87004480078401C024A1070BE
:10051000002070470120FCE71C0000202DE9FF4F60
:1005200087B082469B465046DDE9081200F0B1F8DC
:10053000504600F03CF8BAF80E0002F032FFCDE968
:100540000401DAF8040002F015FFCDE90001584675
:1005500003F0AAF880460B4A0B4B02F071FF0646E7
:10056000DDE9002302F06CFFCDE90201DDE904239F
:1005700002F0A8FD044602F067FDCAF810000BB0B7
:10058000BDE8F08F182D4454FB21094000B5034607
:10059000184600F061F8B3F90C00B3F9001001EB54
:1005A0004102C2EBC11100EBC100586000BD41899E
:1005B0000289914216DD817851B141890289891AF7
:1005C00004290FDB4168491E41600189418109E02E
:1005D00041890289891A042904DB4168491C416068
:1005E0000189418141890289914216DA817851B1AC
:1005F00001894289891A04290FDB4168491E41603B
:100600000189418109E001894289891A042904DBB1
:100610004168491C416001894181704770B50446B9
:100620000D4600202968486200212180E1810846AA
:10063000616003F081F80646206103F061F800B2C2
:10064000A081C0B2E0706081A070208100200149CB
:10065000087070BD1C000020817821B10188491EFE
:1006600009B2018003E00188491C09B20180C17808
:10067000827891420AD0817821B10188491C09B25F
:10068000018003E00188491E09B201808178C170B0
:1006900070470B681B68C3F3001383700B685B6AB9
:1006A0000381C281704772B600BFFEE710B50246F3
:1006B00092F82030012B01D0022B06D1106840693E
:1006C000084314686061002010BD506A40F4802027
:1006D00050620120F8E7F0B504460D461E4694F836
:1006E000207020688368A86800B900E000BF012F6F
:1006F00001D0022F7DD103F0806030B903F000609B
:1007000018B903F0805000287ED0C3F301610120A6
:1007100088403060A86860B9B5F800C0E86840EA71
:100720004C5C206800F5C07000EB0110C0F800C000
:100730000FE0D5E901C040EACC00D5F80CC040EA92
:100740000C00D4F800C00CF5C07C0CEB011CCCF8FC
:100750000000D5F810C0206800F5C07000EB011053
:10076000C0F804C0287D01280ED1206800F5C070B3
:1007700000EB0110406840F4807C206800F5C070F8
:1007800000EB0110C0F804C0D079000692F806C052
:1007900040EA0C4092F805C040EA0C2092F804C0F0
:1007A00040EA0C00D4F800C00CF5C07C0CEB011C36
:1007B000CCF80C00D078000692F802C040EA0C4059
:1007C00092F801C040EA0C2092F800C040EA0C0008
:1007D000D4F800C00CF5C07C0CEB011CCCF8080070
:1007E000206800F5C07000EB0110006840F0010CBB
:1007F00001E00FE008E0206800F5C07000EB011098
:10080000C0F800C00020F0BD606A40F400106062D3
:100810000120F8E7606A40F4802060620120F2E77E
:10082000F0B504460A46216894F82050012D01D005
:10083000022D74D1D1F8000240F00100C1F800028D
:10084000107D00F01F06012000FA06F3D1F81C020B
:100850009843C1F81C02D069C8B9D1F80C0298437A
:10086000C1F80C02908880B2968940EA064601F5EC
:100870001070576940F83760108880B2168940EAD6
:10088000064601F51070576900EBC7004660D06955
:10089000012819D1D1F80C021843C1F80C02908834
:1008A00080B2168840EA064601F51070576940F894
:1008B0003760908980B2168940EA064601F51070CB
:1008C000576900EBC7004660906928B9D1F8040267
:1008D0009843C1F8040204E0D1F804021843C1F8B7
:1008E0000402106928B9D1F814029843C1F814021F
:1008F00004E0D1F814021843C1F81402106A012868
:1009000004D1D1F81C021843C1F81C02D1F800022E
:1009100020F00100C1F800020020F0BDFFE7606A8E
:1009200040F4802060620120F7E7704770B504460C
:1009300094F82050012D01D0022D7DD151B92068AD
:10094000C06800F0030080B9606A40F40010606283
:10095000012070BD2068006900F0030028B9606ABA
:1009600040F4001060620120F3E7206800F5D870C1
:1009700000EB0110006800F004009060906840B93E
:10098000206800F5D87000EB01100068400D106081
:1009900007E0206800F5D87000EB01100068C0087F
:1009A0005060206800F5D87000EB0110006800F07E
:1009B0000200D060206800F5D87000EB011040689C
:1009C00000F00F00082802D30820106108E020681A
:1009D00000F5D87000EB0110406800F00F001061C6
:1009E000206800F5D87000EB0110406800F47F40EB
:1009F000000A9061206800F5D87000EB0110406893
:100A0000000C5061206800F5D87000EB0110806880
:100A10001870206800F5D87000EB0110806800F4B1
:100A20007F40000A5870206800F5D87000EB011074
:100A3000806800F47F0000E03CE0000C98702068C3
:100A400000F5D87000EB01108068000ED8702068A7
:100A500000F5D87000EB0110C0681871206800F52F
:100A6000D87000EB0110C06800F47F40000A587194
:100A7000206800F5D87000EB0110C06800F47F001A
:100A8000000C9871206800F5D87000EB0110C06868
:100A9000000ED87131B92068C06840F02000266887
:100AA000F06005E02068006940F0200026683061B1
:100AB00000204EE7606A40F480206062012048E731
:100AC0002DE9F05F04460025206846692068D0F8CB
:100AD0000490206887682068D0F80CA02068D0F8BF
:100AE00010B02068D0F8188006F00100002855D01A
:100AF00007F00100C0B101202168886007F0020002
:100B000018B1204600F059FA0EE007F0040010B1C9
:100B100045F4006508E007F0080010B145F4805581
:100B200002E0204600F048FA07F48070C8B14FF4A4
:100B300080702168886007F4007018B1204600F0CA
:100B40003EFA0EE007F4806010B145F4005508E06D
:100B500007F4006010B145F4804502E0204600F043
:100B60002DFA07F48030C8B14FF4803021688860D6
:100B700007F4003018B1204600F023FA0EE007F425
:100B8000802010B145F4004508E007F4002010B1C2
:100B900045F4803502E0204600F012FA06F0080025
:100BA00038B10AF0100020B145F40075102021681A
:100BB000C86006F0040040B10AF0080028B108201F
:100BC0002168C860204600F0B9F906F0020038B18B
:100BD0002068C06800F0030010B1204600F0B0F9B2
:100BE00006F0400038B10BF0100020B145F48065EC
:100BF00010202168086106F0200040B10BF00800C9
:100C000028B1082021680861204600F0A3F906F009
:100C1000100038B12068006900F0030010B12046D0
:100C200000F099F906F4003040B109F0100028B145
:100C3000102021684860204600F08EF906F48030CC
:100C400040B109F0080028B108202168486020461A
:100C500000F0B8F906F4004088B309F0040078B356
:100C600006F4807020B108F0010008B145F00105DC
:100C700006F4007020B108F0020008B145F002054A
:100C800006F4806020B108F0040008B145F00405C6
:100C900006F40060A0B108F0700088B108F07000A0
:100CA000402817D006DC10280BD020280CD0302884
:100CB00019D10CE0502810D0602814D110E01DE0AC
:100CC00019E045F008050FE045F010050CE045F08F
:100CD000200509E045F0400506E045F0800503E009
:100CE00045F4807500E000BF00BF2068806920F0F7
:100CF0007000216888610420216848602DB1606A15
:100D0000284360622046FFF710FEBDE8F09F70B5F3
:100D100004460CB9012070BD94F8200010B920469B
:100D200000F0B0F82068006840F001002168086019
:100D300000F08EFB05460DE000F08AFB401B0A2800
:100D400008D9606A40F400306062052084F8200011
:100D50000120E0E72068406800F001000028EBD0A7
:100D60002068006820F002002168086000F070FB35
:100D700005460DE000F06CFB401B0A2808D9606AAC
:100D800040F400306062052084F820000120C2E7B2
:100D90002068406800F002000028EBD1207E012886
:100DA00006D12068006840F080002168086005E0F6
:100DB0002068006820F0800021680860607E0128BB
:100DC00006D12068006840F040002168086005E016
:100DD0002068006820F0400021680860A07E01289B
:100DE00006D12068006840F020002168086005E016
:100DF0002068006820F0200021680860E07E01285B
:100E000006D12068006820F010002168086005E025
:100E10002068006840F0100021680860207F0128E9
:100E200006D12068006840F008002168086005E0ED
:100E30002068006820F0080021680860607F0128B1
:100E400006D12068006840F004002168086005E0D1
:100E50002068006820F0040021680860D4E90201DD
:100E6000084321690843616908436168491E0843D2
:100E70002168C86100206062012084F82000002001
:100E800049E7000010B586B00446002002900390A8
:100E90000490059026492068884246D100BF254825
:100EA000C06940F000702349C8610846C06900F07D
:100EB0000070019000BF00BF00BF0846806940F08D
:100EC000040088610846806900F00400019000BFBA
:100ED00000BFC814029000200390049002A9164895
:100EE00000F026F94FF48050029002200390032076
:100EF000059002A9104800F01BF9002202211320DE
:100F000000F02CFB132000F019FB0022022114201A
:100F100000F024FB142000F011FB00220221152018
:100F200000F01CFB152000F009FB06B010BD00000E
:100F300000640040001002400008014070470000BB
:100F400010B50446024A00212046FFF7ABF910BD58
:100F50003C02002070477047704770B5044694F813
:100F60002000012822D1022084F820002068006897
:100F700020F001002168086000F06AFA05460DE0E3
:100F800000F066FA401B0A2808D9606A40F4003075
:100F90006062052084F82000012070BD2068406850
:100FA00000F001000028EBD16062F6E7606A40F4CF
:100FB000002060620120F0E770477047704770477B
:100FC0007047704770470146002291F821000228BF
:100FD00008D00420886300BF002081F8200000BFF3
:100FE000012070470868006820F00E000B68186048
:100FF0000868006820F001000B68186091F8403024
:1010000001209840CB6B5860012081F8210000BF7F
:10101000002081F8200000BF1046E2E770B50446CA
:10102000002594F82100022803D00420A0630125A4
:1010300048E02068006820F00E0021680860206801
:10104000006820F00100216808601F49206888427C
:1010500001D1012026E01C4914312068884201D1C9
:1010600010201FE0184928312068884201D18015DE
:1010700018E015493C312068884201D1801411E004
:10108000114950312068884202D14FF4803009E084
:101090000D4964312068884202D14FF4801001E08C
:1010A0004FF08070084908394860012084F8210019
:1010B00000BF002084F8200000BF606B10B1204604
:1010C000616B8847284670BD0800024010B5044691
:1010D0000B48007800B910BD082C06D10948FFF76D
:1010E00009FA10B1012008490870102C06D10748F0
:1010F000FFF700FA10B101200549087000BFEAE7C8
:1011000002000020400100200000002054010020C7
:101110000100002010B5044604480068204020B1BA
:10112000024804602046FFF7D1FF10BD14040140BF
:101130002DE9F8470346002294466EE14FF001087E
:1011400008FA02F4D1F8008008EA0400A0427DD138
:10115000DFF8DCA2D1F80480A8EB0A09D0453AD028
:1011600014DCB8F1030F50D009DCB8F1000F31D016
:10117000B8F1010F1CD0B8F1020F49D120E0B8F14D
:10118000110F18D0B8F1120F42D11EE0B9F5881F27
:1011900025D006DCB9F5803F20D0B9F5801F37D1C6
:1011A0001AE0B9F5001F18D0B9F5041F30D117E0C7
:1011B000D1F80CC02DE0D1F80C8008F1040C28E027
:1011C000D1F80C8008F1080C23E0D1F80C8008F16C
:1011D0000C0C1EE000BF00BF00BF00BF00BF00BF7F
:1011E000D1F80880B8F1000F02D14FF0040C0BE0E9
:1011F000D1F80880B8F1010F03D14FF0080C1C6141
:1012000002E04FF0080C5C6103E04FF0000C00E0DE
:1012100000BF00BFFF2801D8984601E003F1040891
:101220004646FF2802D84FEA820803E0A2F10808E8
:101230004FEA88084746D6F800804FF00F0909FAB0
:1012400007F928EA09080CFA07F900E088E048EAFB
:101250000908C6F80080D1F8048008F08058B8F179
:10126000805F7DD100BFDFF8CC81D8F8188048F0CE
:101270000108DFF8C091C9F81880C846D8F818806E
:1012800008F00108CDF8008000BF00BF4FEAB93870
:101290004FEA920958F829504FEA82784FEA1879B4
:1012A0004FF00F0808FA09F825EA0805DFF88881E9
:1012B000434502D14FF0000816E0DFF88081434536
:1012C00002D14FF001080FE0DFF87481434502D1ED
:1012D0004FF0020808E0DFF86C81434502D14FF07F
:1012E000030801E04FF004084FEA82794FEA1979C8
:1012F00008FA09F848EA0505DFF84C814FEA920937
:1013000048F82950D1F8048008F48018B8F5801FF7
:101310000AD1DFF83881D8F8008048EA0008DFF801
:101320002C91C9F8008009E0DFF82081D8F800800E
:1013300028EA0008DFF81491C9F80080D1F8048089
:1013400008F40018B8F5001F10D1DFF8008108F18B
:101350000408D8F8008048EA0008DFF8F09000E0C0
:101360005AE009F10409C9F800800DE0DFF8DC80DB
:1013700008F10408D8F8008028EA0008DFF8CC90CB
:1013800009F10409C9F80080D1F8048008F4003894
:10139000B8F5003F0ED1DFF8B480A8F10408D8F802
:1013A000008048EA0008DFF8A490A9F10409C9F810
:1013B00000800DE0DFF89480A8F10408D8F80080E0
:1013C00028EA0008DFF88490A9F10409C9F8008030
:1013D000D1F8048008F48038B8F5803F0ED1DFF8EA
:1013E0006C80A8F10808D8F8008048EA0008DFF807
:1013F0005C90A9F10809C9F800800DE0DFF84C8085
:10140000A8F10808D8F8008028EA0008DFF83C9026
:10141000A9F10809C9F80080521CD1F8008028FA07
:1014200002F8B8F1000F7FF489AEBDE8F88700003C
:10143000000011100010024000080140000C0140A3
:101440000010014000140140080001400804014060
:1014500001480068704700000C0000200348006845
:101460000349097808440149086070470C000020CE
:101470001400002010B50848006840F0100006492C
:101480000860032000F0A8F80F2000F007F800F033
:101490002BF8002010BD00000020024070B504466B
:1014A0000E4800784FF47A71B1FBF0F00C490968EE
:1014B000B1FBF0F5284600F0F9FB08B1012070BD42
:1014C000102C07D200222146501E00F047F8054894
:1014D000046001E00120F2E70020F0E714000020A2
:1014E000180000201000002008B500BF11488069D6
:1014F00040F001000F4988610846806900F0010052
:10150000009000BF00BF00BF0846C06940F0805097
:10151000C8610846C06900F08050009000BF00BF5D
:1015200000BF0549486820F0E06040F00070486066
:1015300000BF08BD001002400000014001460846FF
:10154000002809DB00F01F0301229A4043099B0099
:1015500003F1E023C3F8002100BF70472DE9F05FDD
:1015600080460D461646002701F078FC07463946AE
:101570002A46334601F00700C0F1070ABAF1040F0A
:1015800002D94FF0040A01E0C0F1070AD14600F188
:10159000040ABAF1070F02D24FF0000A01E0A0F1ED
:1015A000030AD4464FF0010A0AFA09FAAAF1010A1D
:1015B0000AEA020A0AFA0CFA4FF0010B0BFA0CFBCA
:1015C000ABF1010B0BEA030B4AEA0B042146404640
:1015D00001F04CFCBDE8F09F00BF00F00702064B95
:1015E00019684FF6FF031940044B0B4343EA0221ED
:1015F000014B196000BF70470CED00E00000FA05D8
:1016000070B504460D460CB9012070BD5A480068FB
:1016100000F00700A8420ED25748006820F00700EB
:101620002843554908600846006800F00700A842B2
:1016300001D00120E9E7207800F0020002281DD146
:10164000207800F00400042805D14C48406840F49C
:10165000E0604A494860207800F00800082805D179
:101660004648406840F460504449486043484068F8
:1016700020F0F000A168084340494860207800F05D
:10168000010078B36068012806D13C48006800F486
:10169000003090B90120B8E76068022806D13748C9
:1016A000006800F0007040B90120AEE733480068E0
:1016B00000F0020008B90120A7E73048406820F098
:1016C0000300616808432D494860FFF7C1FE0646E4
:1016D00009E0FFF7BDFE801B41F28831884202D944
:1016E000032092E707E02548406800F00C0061689D
:1016F000B0EB810FEDD12048006800F00700A84250
:101700000ED91D48006820F0070028431A490860D8
:101710000846006800F00700A84201D0012074E7E5
:10172000207800F00400042807D11448406820F411
:10173000E060E168084311494860207800F0080043
:10174000082808D10D48406820F46050216940EA1B
:10175000C1000A49486000F03FF808494968C1F3F0
:101760000311074A515CC8400649086006480068F2
:10177000FFF794FE002048E70020024000100240DE
:1017800010380008180000201000002001480068F0
:10179000704700001800002000B5FFF7F7FF04496C
:1017A0004968C1F30221034A515CC84000BD0000F2
:1017B000001002402038000800B5FFF7E7FF044999
:1017C0004968C1F3C221034A515CC84000BD000012
:1017D000001002402038000870B5002100220024CB
:1017E00000230020134D696801F00C05F5B1042DAC
:1017F00002D0082D19D101E00F4819E00F4DC1F3B7
:101800008346AB5D01F4803555B10A4D6D68C5F373
:1018100040450B4E725D084D5D43B5FBF2F402E0AE
:10182000084D03FB05F4204602E000BF024800BF5C
:1018300000BF70BD0010024000127A00FE370008A1
:101840000E38000800093D00F8B504460CB9012027
:10185000F8BD207800F00100002878D0F8484068F2
:1018600000F00C0004280CD0F548406800F00C0093
:10187000082811D1F248406800F48030B0F5803F6C
:101880000AD1EF48006800F4003000285FD060689B
:1018900000285CD10120DBE700BF6068B0F5803F25
:1018A00006D1E748006840F48030E549086028E048
:1018B000606858B9E248006820F48030E049086068
:1018C0000846006820F4802008601AE06068B0F5DF
:1018D000A02F0BD1DA48006840F48020D849086076
:1018E0000846006840F4803008600AE0D448006888
:1018F00020F48030D24908600846006820F4802037
:10190000086000BF606888B1FFF7A2FD054606E0E9
:10191000FFF79EFD401B642801D9032098E7C848C3
:10192000006800F400300028F2D010E0FFF790FDCE
:10193000054606E0FFF78CFD401B642801D9032013
:1019400086E7BF48006800F400300028F2D1207814
:1019500000F00200022857D1B948406800F00C009E
:1019600050B1B748406800F00C00082818D1B448BE
:10197000406800F4803098B9B148006800F0020077
:1019800020B12069012801D0012061E7AC4800683E
:1019900020F0F800616940EAC100A949086033E01D
:1019A0002069E8B10120A7490860FFF751FD05460D
:1019B00006E0FFF74DFD401B022801D9032047E751
:1019C0009F48006800F002000028F2D09C480068A0
:1019D00020F0F800616940EAC1009949086013E00D
:1019E000002098490860FFF733FD054606E0FFF741
:1019F0002FFD401B022801D9032029E790480068E9
:101A000000F002000028F2D1207800F00800082839
:101A10002DD1A069B8B101208B490860FFF718FDEE
:101A2000054606E0FFF714FD401B022801D90320FC
:101A30000EE78348406A00F002000028F2D001203F
:101A400000F048FE13E000207F490860FFF700FD2A
:101A5000054606E0FFF7FCFC401B022801D90320E5
:101A6000F6E67748406A00F002000028F2D12078BC
:101A700000F00400042873D100277148C06900F009
:101A8000805070B900BF6E48C06940F080506C490A
:101A9000C8610846C06900F08050009000BF00BFD8
:101AA00001276A48006800F48070B0B96748006890
:101AB00040F4807065490860FFF7CAFC054606E0FF
:101AC000FFF7C6FC401B642801D90320C0E65F482D
:101AD000006800F480700028F2D000BFE0680128A0
:101AE00006D15748006A40F001005549086227E0D6
:101AF000E06858B95248006A20F001005049086275
:101B00000846006A20F00400086219E0E068052831
:101B10000BD14B48006A40F004004949086208466E
:101B2000006A40F0010008620AE04548006A20F0BF
:101B30000100434908620846006A20F00400086278
:101B400000BFE068A0B1FFF783FC054609E0FFF79E
:101B50007FFC401B41F28831884202D9032077E69E
:101B600022E03748006A00F002000028EFD012E0BF
:101B7000FFF76EFC054608E0FFF76AFC401B41F2E8
:101B80008831884201D9032062E62D48006A00F0BE
:101B900002000028F0D1012F05D12948C06920F0AA
:101BA00080502749C86100BFE069C8B32448406835
:101BB00000F00C00082860D0E069022848D100201D
:101BC00020490866FFF744FC054606E0FFF740FCA5
:101BD000401B022801D903203AE61948006800F0AA
:101BE00000700028F2D1206AB0F5803F07D1144878
:101BF000406820F40030A168084311494860D4E9E6
:101C0000080108430E49496821F4741108430C493E
:101C1000486001200B490866FFF71AFC054607E0FB
:101C20003DE0FFF715FC401B022801D903200FE619
:101C30000348006800F000700028F2D02FE0000098
:101C40000010024000004242800442420070004006
:101C5000002014490866FFF7FBFB054606E0FFF786
:101C6000F7FB401B022801D90320F1E50E4800686C
:101C700000F000700028F2D111E0E069012800D1E5
:101C8000E6E50948466806F48031206A814204D1BD
:101C900006F47011606A814201D00120D8E500206D
:101CA000D6E50000000042420010024070B5044634
:101CB0002546681EB0F1807F01D301200FE0681E29
:101CC0004FF0E02148610F214FF0FF3001F0CEF8D6
:101CD00000204FF0E021886107200861002070BDDE
:101CE00030B502460B4600BF92F83C00012801D1F6
:101CF000022030BD012082F83C0000BF022082F8A3
:101D00003D00106844681068816824F07004186809
:101D1000044310684460104D1068A8420BD010684E
:101D2000B0F1804F07D00D4D1068A84203D00C4D84
:101D30001068A84205D121F080015868014310685D
:101D40008160012082F83D0000BF002082F83C0045
:101D500000BF00BFCDE70000002C014000040040A0
:101D6000000800402DE9F04104460D4614B9012059
:101D7000BDE8F08194F83D0028B9002084F83C00CB
:101D8000204600F051F8022084F83D002068806869
:101D900044F20701884321688860211D206800F013
:101DA000E7FC2068D0F80880206886692068076A08
:101DB000286840EA080840F203308643A969A86809
:101DC00040EA0120064340F60C4086434FF2F00003
:101DD0008643E969E86840EA012006432869000172
:101DE000296A40EA0130064327F0220769696868DA
:101DF00040EA011007432068C0F808802068866127
:101E000020680762012084F8460084F83E00012122
:101E10003F200155012084F8420043200155012054
:101E200084F83D000020A3E710B586B004460020EA
:101E300002900390049005902068B0F1804F25D166
:101E400000BF2848C06940F001002649C861084623
:101E5000C06900F00100019000BF00BF00BF08464C
:101E6000806940F0040088610846806900F0040041
:101E7000019000BF00BF03200290002003900120CA
:101E8000049002A91848FFF753F928E01749206881
:101E9000884224D100BF1348C06940F002001149B4
:101EA000C8610846C06900F00200019000BF00BF91
:101EB00000BF0846806940F00400886108468069D8
:101EC00000F00400019000BF00BFC020029000207D
:101ED00003900120049002A90348FFF729F906B0F6
:101EE00010BD000000100240000801400004004046
:101EF0002DE9F04304460D4694F83E603F20075D0F
:101F000094F84280432010F804906DB9012E02D15C
:101F1000B8F1010F02D00120BDE8F083022084F85F
:101F20003E0084F8420025E0042D0CD1012F02D19F
:101F3000B9F1010F01D00120EEE702213F20015548
:101F40004320015516E0012E07D1012F05D1B8F12C
:101F5000010F02D1B9F1010F01D00120DCE702200D
:101F600084F83E0002213F200155022084F84200FF
:101F70004320015515B1042D0CD105E001220021AB
:101F8000206800F037FC10E001220421206800F0F6
:101F900031FC0AE001220021206800F02BFC012224
:101FA0000421206800F026FC00BF00BF2068006804
:101FB00040F00100216808600020ADE770477047DD
:101FC0002DE9F84F0446206805682068C668206837
:101FD00047694FF00009CA4605F00F09B9F1000F33
:101FE0000AD105F0200038B106F0200020B12046CB
:101FF00000F061FCBDE8F88FB9F1000F7BD007F06D
:10200000010018B906F49070002874D005F00100A2
:1020100030B106F4807018B1606C40F0010060646B
:1020200005F0040030B107F0010018B1606C40F019
:102030000200606405F0020030B107F0010018B141
:10204000606C40F00400606405F0080048B106F0E0
:10205000200010B907F0010018B1606C40F00800D2
:102060006064606C002845D005F0200028B106F0BF
:10207000200010B1204600F01EFC20684069C0F32B
:10208000801A606C00F0080010B9BAF1000F2CD073
:10209000204600F0CAFB2068406900F0400000B311
:1020A00000BF00BF2168143151E8001F21F040003B
:1020B0002168143141E80002002AF3D100BFE06B2F
:1020C00050B17748E16B4863E06BFEF7A7FF88B13A
:1020D000E06B416B88470DE02046FFF770FF09E099
:1020E00009E02046FFF76BFF04E02046FFF767FF9B
:1020F000002060647EE7206B012877D105F0100096
:10210000002873D006F010000028FAD000BF00208D
:10211000009020680068009020684068009000BF30
:1021200000BF2068406900F0400000285FD0E06BED
:10213000006840681FFA80F8B8F1000F55D0A08DF4
:10214000404552DDA4F82E80E06B8069202843D002
:1021500000BF00BF21680C3151E8001F21F48070DE
:1021600021680C3141E80002002AF3D100BF00BF12
:1021700000BF2168143151E8001F21F001002168DF
:10218000143141E80002002AF3D100BF00BF00BFB4
:102190002168143151E8001F21F0400021681431FA
:1021A00041E80002002AF3D100BF202084F8420059
:1021B0000020206300BF00BF21680C3151E8001FE0
:1021C00021F0100021680C3141E80002002AF3D10F
:1021D00000BFE06BFEF7F7FE02206063A08DE28D8A
:1021E000801A81B22046FFF7E9FE03E742E0A08DA6
:1021F000E18D401A1FFA80F8E08DD0B3B8F1000FDE
:1022000037D000BF00BF21680C3151E8001F21F416
:10221000907021680C3141E80002002AF3D100BF20
:1022200000BF00BF2168143151E8001F21F00100F8
:102230002168143141E80002002AF3D100BF2020B8
:1022400084F842000020206300BF00BF21680C31E9
:1022500051E8001F21F0100021680C3141E8000214
:10226000002AF3D100BF0220606341462046FFF7F9
:10227000A5FEBFE605F0800030B106F0800018B181
:10228000204600F035FCB5E605F0400030B106F020
:10229000400018B1204600F0FEFAABE600BFA9E608
:1022A0001728000810B504460CB9012010BDA0691C
:1022B00000B100E000BF94F8410028B9002084F884
:1022C0004000204600F02AF8242084F841002068CD
:1022D000C06820F400502168C860204600F06AFB06
:1022E0002068006920F490402168086120684069F6
:1022F00020F02A00216848612068C06840F400503E
:102300002168C86000206064202084F8410084F8BF
:1023100042000020606300BFC8E7000010B586B02F
:102320000446002002900390049005901E49206806
:10233000884236D100BF1D48806940F480401B4967
:1023400088610846806900F48040019000BF00BFAA
:1023500000BF0846806940F0040088610846806933
:1023600000F00400019000BF00BF48150290022059
:1023700003900320059002A90D48FEF7D9FE4FF403
:102380008060029000200390049002A90848FEF7A4
:10239000CFFE002203212520FFF7E0F82520FFF7DC
:1023A000CDF806B010BD000000380140001002401A
:1023B0000008014070B504460D46164694F84200E8
:1023C00020280BD105B10EB9012070BD002020637B
:1023D00032462946204600F06BFBF6E70220F4E780
:1023E00010B50446074920680968884208D10648A4
:1023F000007800F00DFC012203490248FFF7DAFFE4
:1024000010BD0000F8000020030000202DE9F84F67
:1024100004460E46174699464FF0000A94F84100CC
:10242000202850D106B117B90120BDE8F88F00204F
:102430006064212084F84100FFF70AF88246A784EF
:10244000E784A068B0F5805F04D1206910B9002549
:10245000B04602E035464FF000081EE05346002229
:1024600080212046CDF8009000F072FB20B12020A2
:1024700084F841000320D8E745B9B8F80000C0F35C
:1024800008002168486008F1020803E02878216804
:1024900048606D1CE08C401EE084E08C0028DDD19B
:1024A0005346002240212046CDF8009000F050FB1A
:1024B00020B1202084F841000320B6E7202084F8D2
:1024C00041000020B1E70220AFE7704700BFFEE700
:1024D00010B50E480E4908601220486000210C48D3
:1024E0008160C1604FF4803101610021416101765A
:1024F000417681760121C176002101774177FEF78F
:1025000006FC08B1FEF7CFF810BD000000640040E3
:102510004000002000B585B000200190029003909B
:10252000049000BF1A48806940F020001849886173
:102530000846806900F02000009000BF00BF00BF87
:102540000846806940F0040088610846806900F010
:102550000400009000BF00BF182001900D480290B9
:102560000120039001A90C48FEF7E2FD00220121A1
:102570000920FEF7F3FF0920FEF7E0FF002201210A
:102580000A20FEF7EBFF0A20FEF7D8FF05B000BDDA
:1025900000100240000021100008014000B58BB07F
:1025A000242102A8FDF710FE0020009001904FF0BA
:1025B000804017490860002048600021144881606D
:1025C0004FF6FF71C160002101618161032002901B
:1025D00000200390012004900020059006900790B1
:1025E00001200890002009900A9002A90848FFF7EE
:1025F000B9FB08B1FEF757F800200090019069463A
:102600000348FFF76DFB08B1FEF74DF80BB000BDB6
:102610006800002000B58BB0242102A8FDF7D4FD8E
:102620000020009001901848184908600020486078
:102630000021164881604FF6FF71C16000210161E1
:10264000816103200290002003900120049000206B
:1026500005900690079001200890002009900A90AC
:1026600002A90A48FFF77EFB08B1FEF71CF800201C
:102670000090019069460548FFF732FB08B1FEF76C
:1026800012F80BB000BD000000040040B0000020B4
:1026900010B50B480B4908604FF4165048600021F4
:1026A00008488160C16001610C21416100218161A4
:1026B000C161FFF7F7FD08B1FDF7F5FF10BD0000A0
:1026C00000380140F800002000BFFEE700BFFEE731
:1026D0007047000008B508490968C9084FF47A72C4
:1026E000B1FBF2F14143009100BF00BF00994A1EC7
:1026F00000920029F9D108BD18000020704710B5DC
:10270000FEF7ACFE10BD00B58FB0282105A8FDF77F
:102710005BFD14216846FDF757FD0120059000047C
:102720000690002007900120099002200C90C10320
:102730000D914FF4E0110E9105A8FFF785F808B14F
:10274000FDF7B1FF0F2000900220019000200290C1
:102750004FF4806003900020049002216846FEF749
:102760004FFF08B1FDF79FFF0FB000BD704700009D
:1027700010B502681C4B984208D0B0F1804F05D0CC
:102780001A4B984202D01A4B984203D122F07002A1
:102790004B681A43144B984208D0B0F1804F05D0D3
:1027A000124B984202D0124B984203D122F440724D
:1027B000CB681A4322F080034C6943EA04020260AA
:1027C0008B68C3620B688362074B984201D10B6927
:1027D000036301234361036903F001031BB1036930
:1027E00023F00103036110BD002C014000040040F0
:1027F0000008004030B501F01F05012404FA05F37C
:10280000046A9C430462046A01F01F0502FA05F59C
:102810002C43046230BD70B505466C6A0020E0852B
:10282000E0842046FFF7CBFB70BD00BF00BF02680D
:102830000C3252E8002F22F4907102680C3242E808
:102840000013002BF3D100BF00BF00BF0268143299
:1028500052E8002F22F001010268143242E800130E
:10286000002BF3D100BF016B01290ED100BF00BFC7
:1028700002680C3252E8002F22F0100102680C327C
:1028800042E80013002BF3D100BF202180F8421052
:1028900000210163704710B504462068C06820F02D
:1028A00040002168C860202084F841002046FFF7DE
:1028B0000CFE002010BDF8B5044694F84200222812
:1028C00075D1A068B0F5805F0CD1206950B90025A2
:1028D000A66A20684068C0F308003080A06A801CA7
:1028E000A06215E0A56A0026A068B0F5805F03D05D
:1028F000A06828B9206918B920684068287004E0E9
:102900002068406800F07F002870A06A401CA06228
:10291000E08D401E80B2E085002846D12068C06866
:1029200020F020002168C8602068C06820F4807012
:102930002168C8602068406920F001002168486172
:10294000202084F8420000206063206B012826D1FB
:102950000020206300BF00BF21680C3151E8001F38
:1029600021F0100021680C3141E80002002AF3D167
:1029700000BF2068006800F0100010280AD100BFD6
:102980000020009020680068009020684068009057
:1029900000BF00BFA18D2046FFF710FB02E02046DC
:1029A000FFF71EFD0020F8BD01E00020FBE702203C
:1029B000F9E7000070B504462168096921F4405127
:1029C000E2681143226811612269A16811436269BA
:1029D00041EA02052168C96841F20C62914329432A
:1029E0002268D1602168496921F44071A2691143CC
:1029F000226851612D4A2168914202D1FEF7DCFE26
:102A000001E0FEF7C9FE00EBC00101EB00116268B6
:102A10009200B1FBF2F100EBC00202EB001263681E
:102A20009B00B2FBF3F26423B2FBF3F202EBC203AE
:102A300003EB0212A1EB8201322202EB01116422AC
:102A4000B1FBF2F101F0F00100EBC00202EB001269
:102A500063689B00B2FBF3F26423B2FBF3F201EB79
:102A6000021200EBC00101EB001163689B00B1FB97
:102A7000F3F100EBC00303EB00136668B600B3FB91
:102A8000F6F36426B3FBF6F303EBC30606EB03137E
:102A9000A1EB8301322303EB01116423B1FBF3F1BA
:102AA00001F00F0111442268916070BD00380140AF
:102AB00010B5034699629A85DA8500205864222071
:102AC00083F84200186928B11868C06840F4807023
:102AD0001C68E0601868406940F001001C68606193
:102AE0001868C06840F020001C68E060002010BD3D
:102AF000014691F84100212828D18868B0F5805F0F
:102B00000BD1086948B90A6A1088C0F308000B683D
:102B10005860086A801C086205E00B6A581C08624D
:102B200018780B685860C88C401E80B2C88458B9A9
:102B30000868C06820F080000B68D8600868C0682A
:102B400040F040000B68D860002070470220FCE78E
:102B50002DE9F84304460D4617469846089E31E095
:102B6000701C70B3FEF774FCA0EB0800B04200D8F4
:102B700016B90320BDE8F8832068C06800F004009F
:102B8000F8B1802D1ED0402D1CD020680068C0F305
:102B9000C000B0B100BF0020009020680068009025
:102BA00020684068009000BF00BF2046FFF73DFE50
:102BB0000820606400BF002084F8400000BF0120AE
:102BC000D8E7FFE7206800682840A84201D101202B
:102BD00000E00020B842C3D00020CBE710B5024887
:102BE000FFF7EEF910BD0000F800002010B5024814
:102BF000FDF766FF10BD00004000002010B5024840
:102C0000FDF75EFF10BD00004000002000BFFEE7A2
:102C1000552805D10C49097811B901210B4A1170C9
:102C20000A49097841B10A49074A12788854064985
:102C30000978491C044A1170034909780A2902DD00
:102C40000121044A1170704731000020300000203B
:102C50008C020020320000202DE9F84F83468A467E
:102C60004B48007800287DD04A488078A8304949F0
:102C7000C9780844474909790844464949790844CC
:102C80004449897908444349C97908444149097A42
:102C900008444049497A08443F4908703D48407813
:102CA00053286CD13B48807A0978884267D13949EA
:102CB0008978384AD27841EA022000F03DFD009040
:102CC00000F0F2FC06460022344B00F0FBF980468F
:102CD0000022334B00F0B4FB044600F0B5F9CBF80A
:102CE00000002C4909792B4A527941EA022000F070
:102CF00023FD009000F0D8FC06460022274B00F090
:102D0000E1F904460022264B00F09AFB804600F0D1
:102D10009BF9CBF804001F4989791E4AD27941EA10
:102D2000022000F009FD009000F0BEFC06460022E3
:102D30001A4B00F0C7F904460022194B00F080FB43
:102D4000804600F081F9CBF80800124880788AF8B4
:102D500000001048C0788AF801000E4800798AF80F
:102D6000020000E012E00B4840798AF803000948AD
:102D700080798AF804000748C0798AF805000020A5
:102D8000034908700749087007490870BDE8F88FC3
:102D9000320000208C020020330000200000E040C0
:102DA00000806640300000203100002000200149F2
:102DB000087070472F00002010B50446FEF748FB4E
:102DC00021490968401A64283CD920480078032822
:102DD00038D01E48007820B1012812D0022830D106
:102DE0001FE0642305221A492046FFF70FFB17480E
:102DF0000078401C15490870FEF72AFB124908604C
:102E00001FE06423052213492046FFF7FFFA0F480D
:102E10000078401C0D490870FEF71AFB0A4908604B
:102E20000FE0642305220C492046FFF7EFFA07481C
:102E30000078401C05490870FEF70AFB024908604B
:102E400000BF00BF10BD0000340000202F00002094
:102E500020000020250000202A00002002480068F1
:102E6000C0F30220704700000CED00E010B5002810
:102E700004DB0A07130E054A135406E00A07140E72
:102E8000034A00F00F031B1FD45410BD00E400E000
:102E900018ED00E01CB5FEF7EDFAFFF734FCFFF784
:102EA00039FBFFF77BFBFFF7B5FBFFF7F1FBFFF704
:102EB0000FFB5348FEF751F840F2011040F2012396
:102EC0005A1E411E00904F48FDF7E8FA40F20310E9
:102ED00040F203235A1E411E00904B48FDF7DEFAD4
:102EE00002214748FDF7E2FB4FF4FE604FF480718A
:102EF00000231A46CDE9001044494148FDF7E1F9A5
:102F00007CE0404A42493E48FDF756FA3E4A404975
:102F10003B48FDF751FA3E493A48FDF7B1FA3C49C2
:102F20003948FDF7ADFA3B48007870B93548FDF7F0
:102F300077FA50B13C213848FEF7DAFF3C21374898
:102F4000FEF7D6FF0120334908703548007858B99C
:102F50002D48FDF765FA38B1012232493248FFF7B2
:102F600029FA01202E4908702F48FFF725FF2F4925
:102F70002F48FFF771FE2F48007828B12E48FDF743
:102F800005FB00202B4908702C48007828B12C48FC
:102F9000FDF7FCFA0020294908702A4B4FF47A7299
:102FA0001D492548FDF7BAFA264B4FF47A721B49A2
:102FB0002348FDF7B3FA204801231249026910485B
:102FC000FDF7A0F91E4802230E4902690C48FDF7DF
:102FD00099F9174803230C4902680948FDF792F94B
:102FE00013480423084942680548FDF78BF9104847
:102FF0000523054982680248FDF784F981E700004E
:103000004000002074010020D8010020640200204C
:103010003C0200200200002068000020B0000020D8
:103020000400002003000020F8000020050000201C
:103030006801002000000020400100200100002065
:10304000540100200000484221F00042A2F16052E9
:10305000B2F5801F01F0004328BFD2F17F6C0BD97D
:103060005FEA001C43EAC20242EB507018BF70478F
:1030700028BF20F001007047B2F5801FBCBF184682
:1030800070474FEA410C1CF5001F02D2084600F0C1
:10309000B1BB70B500F07EFA00000089FFF7F6BF03
:1030A0004FF00040A0F580007047491058BFC1F1B3
:1030B00040415B1058BFC3F140438B42EFF30080A7
:1030C000704700002DE9C04130B4DFF8A0C23CEAEF
:1030D000111418BF3CEA131400F0EC8081EA0305D8
:1030E0001CEA111444EAD57418BF1CEA131500F049
:1030F000C780A4EB05044FF0004545EAC12145EA2D
:10310000C32341EA505143EA525304F17F74994278
:1031100004F500344FEAC0204FEAC22208BF9042B3
:1031200000F09C804FEA13650FF24016765D4FEA7F
:10313000134506FB05F7C7F1807706FB07F74FEA53
:10314000D737A7FB03687642C8F58038A7FB06CEC1
:1031500038BFA8F1010807FB08E64FF0000EA6FBF8
:10316000028CE6FB03CEDCF1000CCEF1004E38BF42
:10317000AEF1010EA6FB0C584FF000074FF0000512
:10318000E6FB0E87A1FB08C6A0FB07CE16EB0E06DA
:1031900045F10005E1FB076515F1E04E7EBFA4F5A2
:1031A00080345FEA46066D4116F1800745F100055F
:1031B0004FEA17274FEA066647EA0567A6F1DE469B
:1031C000B6F1805F4FEA15251FD9384624F0010C6F
:1031D00005EBC471BCF1FE6F01EB0C1102D8F0BC21
:1031E000BDE8008124425CBF01F5801E9EEAC47FD9
:1031F00002D4F0BCBDE80081244238D4F0BCA1F177
:10320000C041BDE8004100F013BA4FEAD22242EAC1
:1032100043524FEAD323A7FB02864FEAD02040EA6D
:10322000415007FB03661EEA0E0F4FEAD12105FB52
:10323000026658BFA6EB0056B6EB00564FEA520E98
:103240004EEAC37E18EB0E0E56EB530EBDD518EBAF
:1032500002085E417F1C55F10005B6E74FF480156A
:103260004FF000074FF000064FF00008ADE7F0BC4C
:103270004FF0000001F1C04101F00041BDE80081C4
:1032800011EA0C1F0CEA131500D00CE013EA0C1F16
:1032900000F025804FF00000F0BC81EA030101F04E
:1032A0000041BDE80081F0BCBDE8004181EA0301B6
:1032B00000F0BEB9F0BCBDE8004170B500F06AF99D
:1032C000097EFC3E00F007B881EA03014FF00000E0
:1032D00001F00041704781EA030100F0A9B9F0BC98
:1032E000BDE800414FF0000021497047FFFDFBF9A8
:1032F000F7F5F4F2F0EEEDEBE9E8E6E4E3E1E0DE29
:10330000DDDBDAD8D7D5D4D3D1D0CFCDCCCBCAC89A
:10331000C7C6C5C4C2C1C0BFBEBDBCBBBAB9B8B7C1
:10332000B6B5B4B3B2B1B0AFAEADACABAAA9A8A8B4
:10333000A7A6A5A4A3A3A2A1A09F9F9E9D9C9C9B82
:103340009A9999989797969595949393929191902D
:103350008F8F8E8E8D8C8C8B8B8A898988888787BE
:103360008685858484838382828181800000FF0733
:103370000000F87F10F0004248BF4042B0FA80F3EE
:1033800010FA03F10AD0C3F11D0303F580634FEA7D
:10339000415002EB035202EBD12170474FF0000085
:1033A0007047B0FA80F310FA03F10AD0C3F11D039D
:1033B00003F580634FEA41504FEA035202EBD121FB
:1033C00070474FF00000704751EA030C17D41CF50A
:1033D000801F58BFBCF5801F00F10680994218BFBE
:1033E000704708BF9042704707D711F5801F58BF3C
:1033F00013F5801F19D499427047894270471CF514
:10340000801F08D5BCF5801FF7D58B4218BF7047C9
:1034100008BF824270474FF4001C1CEB410F38BFBD
:103420001CEB430F01D28B42704770B500F0B2F82D
:10343000922449004FF000514FF08053FFF735BE02
:10344000DFF848C170B51CEA111E1EBF1CEA131537
:103450009EEA0C0F95EA0C0F00F06F8081EA0304DE
:1034600023EA4C134EEAD47E21EA4C1141F4801138
:1034700043F48013AE44A1FB024CA0FB0365AEF104
:103480007F7E361955EB0C05A1FB034C4CF1000374
:10349000A0FB021C16EB0C06654153F10003094228
:1034A00018BF46F0010613F4007F0BD14FEA033139
:1034B0004FEA0530340341EA155140EA16506FF0E7
:1034C00003020AE04FEAC3214FEAC520F40241EAB1
:1034D000555140EA56506FF0020202EB2E4201EBCA
:1034E000025585EACE710AD05FEA440C18BF24F079
:1034F000004450F1000041F1000120EAD47040F294
:10350000FE7C624500D270BDA84214BF4FF08044DB
:103510004FF04044002E08BF0024BEF1806FA8BFCA
:10352000A1F1C041BDE8704080F282804FF0000000
:1035300001F1C04101F0004170479EEA0C0F0CEA16
:10354000131518BF95EA0C0F06D04FF0000081EA62
:10355000030E0EF0004170BD00F01CF88900013E22
:1035600000F007B800F009B84FEA430C5FEA5C5C72
:1035700008D081EA030100F05BB84FEA410C5FEA32
:103580005C5CF6D14FF00000014970470000FF0776
:103590000000F87F0EF1020E2EF0030E5EF8046BB1
:1035A000364205D4012A43EB030515F5001F12D856
:1035B000012841EB010C1CF5001F0CD80ED14FEA7D
:1035C000D17C15F5001F0CEB4C0C0CF1020C08BF64
:1035D0004CEBD37C04E04FF0080C01E04FEAD37CC5
:1035E0000CEB4C0526FA05F606F00706B6F1040CBE
:1035F00006D20EEB860CBDE870404CF0010C604723
:10360000DFE80CF0090B02024FF000414FF0000020
:10361000A1F5002170BD19461046012851EB0104A7
:1036200018BFD4F5001484BF002001F0004170BD24
:103630000808A0F500114FEA3101704753EA010C68
:1036400017D41CF5801F58BFBCF5801F00F1068001
:103650008B4218BF704708BF8242704707D713F5E7
:10366000801F58BF11F5801F19D48B4270479B42B1
:1036700070471CF5801F08D5BCF5801FF7D599420F
:1036800018BF704708BF904270474FF4001C1CEBF6
:10369000430F38BF1CEB410F01D2994270470FB462
:1036A0000CBC03BCFFF7C1BE43004FEAD30C4FEA8A
:1036B0003C0C43401FBF40070CF1605113F0FE4F1C
:1036C00070471CF0006F03D100200CF000417047E0
:1036D0000CF0004343EA507010B540EACC0000F013
:1036E00043F800BF000000924FEA0001FFF7A0BFBF
:1036F0004FF000414FF00000A1F50021704700009D
:1037000041000B0ED3F19E0208D950F400034FEA9A
:10371000032323FA02F048BF4042704710B500F07F
:1037200023F800BF49922480002070476FF00042C8
:1037300082EA20007047000010F0004148BF40427C
:10374000B0FA80F310FA03F2C3F19D030BD051EAF3
:10375000C35101EB1220530638BF704700F101003E
:1037600008BF20F0010070470EF1020E2EF0030E8C
:103770005EF8044B244204D44FEA4102B2F17F4F79
:1037800011D84FEA4003B3F17F4F0CD80ED14FEA66
:10379000D07CB2F17F4F0CEB4C0C0CF1020C08BF4B
:1037A0004CEBD17C04E04FF0080C01E04FEAD17CF7
:1037B0000CEB4C0324FA03F404F00704B4F1040CFA
:1037C00006D20EEB840CBDE810404CF0010C6047B3
:1037D000DFE80CF0070802024FF00040A0F580007F
:1037E00010BD0846420018BFD2F1807288BF00F0B9
:1037F000004010BDFF2141EAD050C00570470203D0
:103800000405060708090A0B0C0D0E0F1010010223
:103810000000000000000000010203040607080980
:1038200000000000010203044838000800000020E6
:1038300040000000280100088838000840000020EF
:10384000B80800004401000800000000000000006B
:103850000000000000000000100000000100000057
:1038600000127A0000000000FFAA6988B5FFAA01D3
:103870000400FFAA0000000000000000000000009B
:08388000000000000000000040
:04000005080000ED02
:00000001FF
